S01B0000496F545F6861726A74796F5F61726475696E6F2E737265634C
S11300000C9475000C9492000C9492000C94920041
S11300100C9492000C9492000C9492000C94920014
S11300200C9492000C9492000C9492000C94920004
S11300300C9492000C9492000C9492000C949200F4
S11300400C9492000C9492000C9498010C949200DD
S11300500C9492000C9492000C9492000C949200D4
S11300600C9492000C94920007634236B79BD8A775
S11300701A39685618AEBAAB558C1D3CB7CC5763C9
S1130080BD6DEDFD753EF6177231BF000000803F77
S113009008000000BE922449123EABAAAA2ABECD93
S11300A0CCCC4C3E00000080BEABAAAAAA3E000005
S11300B00000BF000000803F0000000000084178FD
S11300C0D3BB4387D1133D190E3CC3BD4282AD2B34
S11300D03E68EC8276BED98FE1A93E4C80EFFFBE2C
S11300E001C4FF7F3F000000000011241FBECFEFBA
S11300F0D8E0DEBFCDBF11E0A0E0B1E0ECE4FEE06B
S113010002C005900D92A431B107D9F721E0A4E112
S1130110B1E001C01D92A531B207E1F70E948D0242
S11301200C9424070C9400001092C50087E6809379
S1130130C400E1ECF0E0808188698083E2ECF0E0C7
S11301408081866080830895CF93DF93FC012081B2
S1130150222369F0DC011196E0ECF0E0C6ECD0E07B
S1130160908195FFFDCF28832D912111F9CFDF9147
S1130170CF910895EAE7F0E08081806880838FE37F
S11301809CE90197F1F700C00000808180648083BE
S1130190808186FDFDCF2091780030917900EAE7D7
S11301A0F0E090819F779083C90108959B012150CD
S11301B031091216130684F4FC01E60FF71FDC0163
S11301C080E090E04C9152915D93408301962150E0
S11301D0310982179307B4F30895CF92DF92EF9217
S11301E0FF920F931F93CF93DF936B018A010097C4
S11301F099F0EB01E0E0F0E00F2EFAE0EF2EF12CA5
S1130200F02D3196B7010E94FC06805D8993862FFC
S1130210972F0097B1F702C0E0E0F0E0E017F10794
S11302205CF4EC0DFD1D9601200F311F80E38193DA
S1130230E217F307E1F701C08F01B801C6010E947C
S1130240D600E601C00FD11F1882C801DF91CF91FB
S11302501F910F91FF90EF90DF90CF9008952F9210
S11302603F924F925F926F927F928F929F92AF9242
S1130270BF92CF92DF92EF92FF920F931F93CF938F
S1130280DF934B015C018A01E9010E94D4036B01F5
S11302907C0140E050E0B801C6010E94ED001C0161
S11302A0209799F1F801E80FF91F8EE28083BE01CF
S11302B00D2E000C880B990B0E940C049B01AC01C1
S11302C060E070E080E291E40E9405052B013C01AE
S11302D0B601DD0C880B990B0E940C049B01AC0148
S11302E0C501B4010E9467032FEF221A320A020DDE
S11302F0131DA30192010E9498040E94D403DC01FF
S1130300CB01AE01B8010E94ED00DF91CF911F91A6
S11303100F91FF90EF90DF90CF90BF90AF909F90A0
S11303208F907F906F905F904F903F902F900895A3
S11303301F920F920FB60F9211248F939F93EF93F6
S1130340FF93E6ECF0E08081808390E295B98B32F4
S113035069F480911401853019F48093140114C058
S1130360809114018F5F809314010EC08D3261F46B
S113037080911401811103C01092140105C0809171
S11303801401815080931401FF91EF919F918F91FB
S11303900F900FBE0F901F9018955F9888230CF450
S11303A05F9A5E9886FD5E9A5D9885FD5D9A5C987D
S11303B084FD5C9A5B9A85E08A95F1F700005B986E
S11303C085E08A95F1F700000895CF93C82F5A9AD3
S11303D05B9A0E94CD018C2F8295807F0E94CD0173
S11303E0CF9108950F931F93CF93DF9300D0CDB790
S11303F0DEB78C011A821982E981FA81E80FF91FAC
S113040080818823C9F0E981FA81E00FF11F80819E
S11304100E94E50189819A8101969A8389838FE3F9
S113042091E00197F1F700C00000E981FA81E00F43
S1130430F11F80818111E7CF0F900F90DF91CF9151
S11304401F910F910895CF93C82F5A985B980E94DB
S1130450CD018C2F8295807F0E94CD01CF9108958C
S11304602FEF81EE94E0215080409040E1F700C0EE
S113047000005A985B9880E30E94CD018FE39CE9C9
S11304800197F1F700C0000080E30E94CD018FE1E5
S113049093E00197F1F700C0000080E30E94CD01D2
S11304A08FE193E00197F1F700C0000088E20E9419
S11304B0CD018FE391E00197F1F700C0000088E2DD
S11304C00E9423028FE391E00197F1F700C000003E
S11304D088E00E9423028FE391E00197F1F700C0C6
S11304E0000081E00E9423028FE79EE30197F1F769
S11304F000C0000086E00E9423028FE391E0019790
S1130500F1F700C000008CE00E9423028FE391E029
S11305100197F1F700C000000895CF93DF93CDB7A2
S1130520DEB7C456D1090FB6F894DEBF0FBECDBFF7
S113053081E880938000109289001092880083E003
S113054080938100579A569A559A549A539A529A7C
S11305500E9494000E9430028FEF84B987B18A7F91
S113056087B93C9AECE7F0E08081836080838081E6
S113057080648083EAE7F0E0808187608083808103
S11305808F7D8083EBE7F0E08081887F808378949F
S113059008E810E00F2EFCEC8F2E912CF02D0F2E7E
S11305A0F9E9AF2EB12CF02DCC24CA94D12C0F2E06
S11305B0FAE84F2E512CF02D0F2EF3E3EF2EF12CF1
S11305C0F02D0F2EF6E66F2E712CF02D0E94BA003E
S11305D0BC01990F880B990B0E940C0420E030E0B9
S11305E040EA50E40E94980420E030E040E85AE3F6
S11305F00E94980420E030E040E05FE30E9467033B
S113060020E030E048EC52E40E94980421E030E01D
S1130610AE014F5F5F4F0E942F0180E80E942302CA
S11306208FE391E00197F1F700C0000080E091E0D2
S11306300E94F20180EC0E942302EFE3F1E0319783
S1130640F1F700C000008CE091E00E94F201CE01BD
S113065001960E94F201FFEF23ED80E3F150204068
S11306608040E1F700C0000081E191E00E94A40015
S1130670CE0101960E94A400809114018230B9F049
S113068028F4882349F0813071F0A0CF8430B9F088
S113069090F08530C1F09ACFF80111821082F201F6
S11306A01182108293CFF801F182E0828FCFF8019A
S11306B0718260828BCFF801B182A08287CFF8016A
S11306C09182808283CFF801D182C0827FCF50583B
S11306D0BB27AA270E947F030C945E040E94500447
S11306E038F00E94570420F039F49F3F19F426F49F
S11306F00C944D040EF4E095E7FB0C944704E92FA9
S11307000E946F0458F3BA176207730784079507AA
S113071020F079F4A6F50C9491040EF4E0950B2ED8
S1130720BA2FA02D0B01B90190010C01CA01A0013F
S11307301124FF27591B99F0593F50F4503E68F19A
S11307401A16F040A22F232F342F4427585FF3CFDB
S1130750469537952795A795F0405395C9F77EF4AC
S11307601F16BA0B620B730B840BBAF09150A1F0F5
S1130770FF0FBB1F661F771F881FC2F70EC0BA0F7B
S1130780621F731F841F48F4879577956795B79503
S1130790F7959E3F08F0B0CF9395880F08F09927FE
S11307A0EE0F9795879508950E94DB036894B11125
S11307B00C94920408950E94770488F09F5798F04F
S11307C0B92F9927B751B0F0E1F0660F771F881F52
S11307D0991F1AF0BA95C9F714C0B13091F00E946C
S11307E09104B1E008950C949104672F782F882721
S11307F0B85F39F0B93FCCF3869577956795B39593
S1130800D9F73EF490958095709561957F4F8F4F01
S11308109F4F0895E89409C097FB3EF49095809506
S1130820709561957F4F8F4F9F4F9923A9F0F92FB2
S113083096E9BB279395F695879577956795B79530
S1130840F111F8CFFAF4BB0F11F460FF1BC06F5F16
S11308507F4F8F4F9F4F16C0882311F096E911C028
S1130860772321F09EE8872F762F05C0662371F049
S113087096E8862F70E060E02AF09A95660F771F5D
S1130880881FDAF7880F9695879597F9089597F951
S11308909F6780E870E060E008959FEF80EC089522
S11308A000240A941616170618060906089500244B
S11308B00A9412161306140605060895092E0394C5
S11308C0000C11F4882352F0BB0F40F4BF2B11F439
S11308D060FF04C06F5F7F4F8F4F9F4F089557FD98
S11308E09058440F551F59F05F3F71F04795880F9A
S11308F097FB991F61F09F3F79F087950895121631
S113090013061406551FF2CF4695F1DF08C01616DC
S113091017061806991FF1CF86957105610508948D
S11309200895E894BB2766277727CB0197F90895A4
S11309300E94AB040C945E040E94500438F00E94A0
S1130940570420F0952311F00C9447040C944D04A3
S113095011240C9492040E946F0470F3959FC1F3C8
S1130960950F50E0551F629FF001729FBB27F00D59
S1130970B11D639FAA27F00DB11DAA1F649F6627AE
S1130980B00DA11D661F829F2227B00DA11D621FFD
S1130990739FB00DA11D621F839FA00D611D221FB7
S11309A0749F3327A00D611D231F849F600D211D9B
S11309B0822F762F6A2F11249F5750409AF0F1F01E
S11309C088234AF0EE0FFF1FBB1F661F771F881F87
S11309D091505040A9F79E3F510580F00C94470474
S11309E00C9492045F3FE4F3983ED4F38695779594
S11309F06795B795F795E7959F5FC1F7FE2B880F2D
S1130A00911D9695879597F90895FA01EE0FFF1FAA
S1130A10309621053105A1F16115710561F4803825
S1130A20BFE39B0749F168949038810561F08038F1
S1130A30BFEF9B0741F099234AF5FF3FE1053105DC
S1130A40210519F1E8940894E795D901AA2329F41A
S1130A50AB2FBE2FF85FD0F310C0FF5F70F4A695E4
S1130A60E0F7F73950F019F0FF3A38F49F779F9385
S1130A700DD00F9007FC9058089546F00C944D0447
S1130A8060E070E080E89FE308954FE79F775F930D
S1130A904F933F932F930E9400062F913F914F91C4
S1130AA05F910E9498040C945D0529F416F00C944F
S1130AB047040C9491040C944D040E947704A8F309
S1130AC09638A0F707F80F92E8942BE33AEA48EB3C
S1130AD05FE70E94AE040F920F920F924DB75EB77C
S1130AE00F920E944806E8E6F0E00E948F054F91BD
S1130AF05F91EF91FF91E595EE1FFF1F49F0FE57BF
S1130B00E0684427EE0F441FFA95E1F74195550B31
S1130B100E94C2050F9007FE0C94B6050895DF935A
S1130B20CF931F930F93FF92EF92DF927B018C017F
S1130B30689406C0DA2EEF010E94AB04FE01E8942B
S1130B40A5912591359145915591A6F3EF010E9408
S1130B507F03FE019701A801DA9469F7DF90EF9013
S1130B60FF900F911F91CF91DF9108959B01AC01EC
S1130B7060E070E080E89FE30C947C060C944704EA
S1130B800C94EE060E947704D8F39923C9F3940FCA
S1130B90511DA3F39150504094F059F0882332F042
S1130BA0660F771F881F91505040C1F79E3F510533
S1130BB02CF7880F911D9695879597F908955F3FB7
S1130BC0ACF0983E9CF0BB27869577956795B795D2
S1130BD008F4B1609395C1F7BB0F58F711F460FFA7
S1130BE0E8CF6F5F7F4F8F4F9F4FE3CF0C949204FA
S1130BF016F00C94EE060C944D0468940C9447047F
S1130C000E947704A8F39923C1F3AEF3DF93CF9343
S1130C101F930F93FF92C92FDD2788232AF0219772
S1130C20660F771F881FDAF720E030E040E85FEBBB
S1130C309FE3883920F0803E38F021968F770E9418
S1130C406803E0E9F0E004C00E946803EDEBF0E023
S1130C500E948F058B01BE01EC01FB2E6F577109B9
S1130C607595771F880B990B0E940C0428E132E7D5
S1130C7041E35FE30E94AB04AF2D9801AE01FF9006
S1130C800F911F91CF91DF910E947F030C945E041A
S1130C90FA01DC01AA0FBB1F9B01AC01BF5728F46A
S1130CA0222733274427507820C0B75190F4AB2F24
S1130CB00024469537952795011CA395D2F300206F
S1130CC071F0220F331F441FB395DAF30ED00C9446
S1130CD0670361307105A0E88A07B94630F49B01C7
S1130CE0AC016627772788279078309621F02083F7
S1130CF031834283538308950E9490060C945E04CA
S1130D000E94570458F00E94500440F029F45F3FB9
S1130D1029F00C94470451110C9492040C944D0442
S1130D200E946F0468F39923B1F3552391F3951B43
S1130D30550BBB27AA2762177307840738F09F5FF8
S1130D405F4F220F331F441FAA1FA9F335D00E2E65
S1130D503AF0E0E832D091505040E695001CCAF7D2
S1130D602BD0FE2F29D0660F771F881FBB1F261795
S1130D7037074807AB07B0E809F0BB0B802DBF016C
S1130D80FF2793585F4F3AF09E3F510578F00C943B
S1130D9047040C9492045F3FE4F3983ED4F38695A1
S1130DA077956795B795F7959F5FC9F7880F911D5C
S1130DB09695879597F90895E1E0660F771F881F48
S1130DC0BB1F621773078407BA0720F0621B730BFB
S1130DD0840BBA0BEE1F88F7E09508959F3F31F01E
S1130DE0915020F4879577956795B795880F911D55
S1130DF09695879597F9089597FB072E16F4009416
S1130E0007D077FD09D00E94100707FC05D03EF4F7
S1130E10909581959F4F0895709561957F4F0895A2
S1130E20AA1BBB1B51E107C0AA1FBB1FA617B7070C
S1130E3010F0A61BB70B881F991F5A95A9F7809528
S10F0E409095BC01CD010895F894FFCFFB
S1130E4C54656D706572617475726500496E3A20F3
S1070E5C0049000045
S9030000FC
